:020000040800F2
:10000000C810012439030008B95C0008B95A000877
:10001000B15C0008390600082181000800000000DA
:10002000000000000000000000000000F163000874
:10003000510C000800000000F15E00083164000867
:100040005703000857030008570300085703000828
:100050005703000857030008570300085703000818
:10006000570300085703000857030008410600081B
:1000700057030008570300085703000857030008F8
:1000800057030008570300085703000857030008E8
:1000900057030008570300085703000857030008D8
:1000A00057030008570300085703000857030008C8
:1000B00057030008570300085703000857030008B8
:1000C00057030008570300085703000857030008A8
:1000D0005703000857030008570300085703000898
:1000E00057030008570300080000000057030008EA
:1000F0005703000857030008570300085703000878
:100100005703000857030008570300085703000867
:100110005703000857030008570300085703000857
:100120005703000857030008570300085703000847
:100130005703000857030008570300085703000837
:1001400000000000000000000000000000000000AF
:100150005703000857030008570300085703000817
:100160005703000857030008570300085703000807
:1001700057030008570300085703000857030008F7
:1001800057030008570300085703000857030008E7
:1001900057030008570300085703000857030008D7
:1001A00057030008570300085703000857030008C7
:1001B00057030008570300085703000857030008B7
:1001C00057030008570300085703000857030008A7
:1001D00057030008F15C00085703000857030008A4
:1001E0005703000857030008570300085703000887
:1001F0005703000857030008570300085703000877
:100200005703000857030008570300085703000866
:100210005703000857030008570300085703000856
:1002200057030008570300085703000800000000A8
:100230005703000857030008000000005703000898
:100240005703000857030008570300085703000826
:100250005703000857030008570300085703000816
:100260005703000857030008570300085703000806
:100270005703000857030008570300080000000058
:100280005703000857030008570300080000000048
:10029000000000005703000800F002F800F03CF8EE
:1002A0000AA090E8000C82448344AAF10107DA45D1
:1002B00001D100F031F8AFF2090EBAE80F0013F0E7
:1002C000010F18BFFB1A43F001031847247F0000F9
:1002D000447F0000103A24BF78C878C1FAD852078A
:1002E00024BF30C830C144BF04680C6070470000B0
:1002F0000023002400250026103A28BF78C1FBD82F
:10030000520728BF30C148BF0B6070471FB507F0C8
:100310005AFF1FBD10B510BD00F07EF81146FFF763
:10032000F5FF07F03DFF00F09CF803B4FFF7F2FF84
:1003300003BC00F0A3F800000A4880470A48804741
:100340000A480047FEE7FEE7FEE7FEE7FEE7FEE7B6
:10035000FEE7FEE7FEE7FEE705480649064A074BCB
:1003600070470000690C0008016500089902000848
:10037000C8C00024C8100124C8000124C8000124FA
:100380004FF000020429C0F0128010F0030C00F0BE
:100390001B80CCF1040CBCF1020F18BF00F8012B3C
:1003A000A8BF20F8022BA1EB0C0100F00DB85FEA0A
:1003B000C17C24BF00F8012B00F8012B48BF00F8D6
:1003C000012B70474FF0000200B513469446964645
:1003D000203922BFA0E80C50A0E80C50B1F1200158
:1003E000BFF4F7AF090728BFA0E80C5048BF0CC006
:1003F0005DF804EB890028BF40F8042B08BF704764
:1004000048BF20F8022B11F0804F18BF00F8012BD5
:100410007047704770477047754600F02BF8AE463E
:1004200005006946534620F00700854618B020B500
:10043000FFF792FFBDE820404FF000064FF00007A5
:100440004FF000084FF0000BAC46ACE8C009ACE838
:10045000C009ACE8C009ACE8C00921F007018D462D
:10046000704710B50446AFF300802046BDE8104049
:10047000FFF75BBF00487047300100240149182096
:10048000ABBEFEE72600020070470000000000003F
:10049000B0B54BF2F070C2F20040D0F8D43200EBAD
:1004A0008300D0F8C052BDB10C46022A16D0012AF2
:1004B00030D14CF22800C2F2004004F0C5FF012800
:1004C00028D14CF2280043F6EC71C4F34F02C2F27B
:1004D0000040C2F200411BE00320B0BD4CF22800F6
:1004E000C2F2004004F05CFF43F60640285A0119AE
:1004F0004900B1F5F04F0DD8C4F34F0243F6EC714B
:10050000C2F2004101EB40014CF22800C2F200406F
:1005100005F02AFA0020B0BD00207047000000005E
:10052000002070470000000000207047000000001D
:10053000002070470000000010B5012A31D14BF2B5
:10054000EC7C0022C2F2004CB2EB910F4FEA910E0C
:10055000DCF8001014D043F6EC730438C2F2004308
:100560001944A1F10803714630F8042F0139448879
:100570004FEA024243F8082F4FEA04425A60F3D18F
:10058000DCF8000000EBCE00CCF80000DCF8000046
:10059000C00A0E2805D9DCF80000A0F5F040CCF820
:1005A0000000002010BD0000F0B581B00446D0F876
:1005B000D40204EB8000D0F8C00288B10D4643F6A7
:1005C0000B414618402130464027FFF7D9FEE88806
:1005D0003146402838BF074620463A4606F070FAB2
:1005E00001B0F0BD0000000080B5D0F8D42200EBCF
:1005F0008202D2F8C0C2BCF1000F18D0CA88002A0B
:1006000008BF80BD43F60A43402A0CEB030E4FF0AF
:1006100001038EF8003028BF402249798EF842103D
:1006200043F60B4161448EF8412006F02DFA80BD5F
:100630000020704700000000FEE7000000000000FE
:1006400080B54BF6CC20C2F2004000F01DFE80BD0C
:1006500040F20F420168C4F20202914210DC6F22A4
:10066000C4F20202914220DC3F22C4F20202914213
:1006700036DC1022C4F20202914254D028224EE00D
:1006800040F26F42C4F2020291421ADC40F23F4251
:10069000C4F2020291422ADC40F21042C4F2020289
:1006A000914240D040F2284239E09F22C4F2020237
:1006B000914225DC7022C4F20202914233D088229A
:1006C0002DE040F29F42C4F2020291421FDC40F250
:1006D0007042C4F20202914225D040F288421EE0EC
:1006E0004022C4F2020291421DD0582217E040F28B
:1006F0004042C4F20202914215D040F258420EE04C
:10070000A022C4F2020291420DD0B82207E040F2CA
:10071000B842C4F20202914205D040F2A042C4F2B3
:10072000020291421AD1D0F800C06FF00F024AF6CF
:10073000AB2352FA8CF2CAF6AA23A2FB033109A317
:100740005F2AC1F302115B5C40F2FF312CEA010128
:10075000C36588BF0431816508467047016821F090
:10076000FF01F8E700061016000610160000000052
:1007700010B545F257420168C5F6020291420EDCFF
:1007800045F22F42C5F60202914217DC45F20842BB
:10079000C5F60202914226D045F21C421FE045F206
:1007A0007F42C5F60202914211DC45F25842C5F67D
:1007B0000202914217D045F26C4210E045F23042FD
:1007C000C5F6020291420ED045F2444207E045F2DE
:1007D0009442C5F60202914205D045F28042C5F628
:1007E0000202914219D101784CF6CD42CCF6CC42AE
:1007F00045F600030839C5F60203A1FB021203F116
:100800008001120903EB820302F01F020366012339
:10081000416603FA02F1816610BD02784AF6AB2305
:10082000CAF6AA234FF0080E103AA2FB032340F2A7
:100830000F42C4F202024FEA131C914202F1AA04D1
:10084000624688BF0EEB131240F60003A142C4F2C9
:10085000020303F1800128BF6246D3E700000000D5
:1008600010B50279511E072988BF10BD45F2574CBB
:1008700045F6FC0E0368C5F6020CC5F6020E63458C
:100880000EF1440C0EDC45F22F44C5F60204A342DF
:1008900017DC45F20844C5F60204A34226D045F20F
:1008A0001C441FE045F27F44C5F60204A34211DC5C
:1008B00045F25844C5F60204A34217D045F26C44F1
:1008C00010E045F23044C5F60204A3420ED045F2D2
:1008D000444407E045F28044C5F60204A34205D033
:1008E00045F29444C5F60204A34209D10EEB8202FC
:1008F000C2660122C0F870C002FA01F1416710BD62
:1009000040F6FC0EC4F2020E0EF1440CEEE70000BD
:100910008169B1F5005F07D079B9816A022912D0E7
:10092000012916D079B112E0816A03290FD8DFE8D6
:1009300001F0020A021001207047816A03293CBFBE
:100940000120704703D1C06AC0F3006070470020E7
:100950007047C06AA0F1C070B0FA80F040097047DB
:1009600070B540F26F44D0F800E0C4F20204D0F851
:1009700058C0A64519DC9F25C4F20205AE4531DCFE
:100980005725C4F20205AE4556DC1025C4F2020517
:10099000AE4500F092802825C4F20205AE4500F075
:1009A0008C804025C4F2020584E045F22F45C5F64F
:1009B0000205AE452BDC40F2B745C4F20205AE4558
:1009C00048DC40F27045C4F20205AE4575D040F2F5
:1009D0008845C4F20205AE456FD040F2A045C4F28E
:1009E000020567E040F22745C4F20205AE4540DC4F
:1009F000A025C4F20205AE455FD0B825C4F20205B9
:100A0000AE455AD040F21045C4F2020552E045F21C
:100A10006B45C5F60205AE453CDC45F23045C5F6F2
:100A20000205AE4549D045F24445C5F60205AE453E
:100A300043D045F258453BE05825C4F20205AE4587
:100A40003BD07025C4F20205AE4536D08825C4F2ED
:100A500002052FE040F2B845C4F20205AE452CD0A5
:100A600045F20845C5F60205AE4526D045F21C45BF
:100A70001EE040F22845C4F20205AE451DD040F20A
:100A80004045C4F20205AE4517D040F25845C4F2C5
:100A900002050FE045F26C45C5F60205AE450CD0E7
:100AA00045F29445C5F60205AE4506D045F28045AF
:100AB000C5F60205AE4540F0C980456EC66E002EF3
:100AC000866E6E601CBFD0E91C566E60A64515DCB4
:100AD0009F24C4F20204A6452BDC5724C4F202046E
:100AE000A6454EDC1024C4F20204A64576D0282484
:100AF000C4F20204A64571D040246BE045F22F44B5
:100B0000C5F60204A64527DC40F2B744C4F202044D
:100B1000A64542DC40F27044C4F20204A6455DD012
:100B200040F28844C4F20204A64557D040F2A044E3
:100B300050E040F22744C4F20204A6453CDCA02465
:100B4000C4F20204A64549D0B824C4F20204A64562
:100B500044D040F210443DE045F26B44C5F6020437
:100B6000A6454FDC45F23044C5F60204A6455BD0ED
:100B700045F24444C5F60204A64555D045F2584412
:100B80004EE05824C4F20204A64527D07024C4F2D3
:100B90000204A64522D088241CE040F2B844C4F2E6
:100BA0000204A6451AD045F20844C5F60204A6453B
:100BB0003AD045F21C4433E040F22844C4F2020427
:100BC000A6450BD040F24044C4F20204A64505D02D
:100BD00040F25844C4F20204A64537D104683F25C8
:100BE0008668C06D00F01F00402E05FA00F0CCF8BA
:100BF0000800206820F480202060636021D0A1607C
:100C0000E26070BD45F26C44C5F60204A6450BD007
:100C100045F28044C5F60204A64505D045F2944449
:100C2000C5F60204A64511D10468C66D806806F0B9
:100C30001F060125402805FA06F6CCF8046063601B
:100C400002D1A260E16070BDA160E26070BD0000F1
:100C50007047000000000000EFF3108072B600BF84
:100C6000FEE700000000000044F60C00C5F602009C
:100C7000016841F00201016050F8081C8904FBD5AD
:100C80007047000000000000B0B54EF60001C1F64C
:100C9000F17108688A68801808BFB0BD40F210156D
:100CA0004C68C2F200450822A91C04F009FF05F1B6
:100CB00012010422204604F003FFB0BD0000000032
:100CC0002DE9F041044601F083FE04B3054694F893
:100CD000350002281ED140F20F472068C4F20207F7
:100CE00040F26F48B842C4F2020817DC6F21C4F228
:100CF0000201884223DC3F21C4F20201884239DC30
:100D00001021C4F20201884258D0282151E001206C
:100D1000BDE8F081802060650120ABE240451ADC2F
:100D200040F23F41C4F2020188422ADC40F2104105
:100D3000C4F20201884241D040F2284139E09F21AB
:100D4000C4F20201884225DC7021C4F2020188420B
:100D500034D088212DE040F29F41C4F20201884244
:100D60001FDC40F27041C4F20201884226D040F2FA
:100D700088411EE04021C4F2020188421ED0582161
:100D800017E040F24041C4F20201884216D040F21E
:100D900058410EE0A021C4F2020188420ED0B821D1
:100DA00007E040F2B841C4F20201884206D040F2A6
:100DB000A041C4F20201884240F0EA81266831680D
:100DC00021F01E02314641F8142B6FF080020B68AF
:100DD000404502EA03020A6019DC9F21C4F20201C5
:100DE000884231DC5721C4F20201884256DC1021CE
:100DF000C4F20201884200F091802821C4F202016D
:100E0000884200F08B804021C4F2020184E045F268
:100E10002F41C5F6020188422BDC40F2B741C4F2F3
:100E20000201884248DC40F27041C4F2020188426B
:100E300074D040F28841C4F2020188426ED040F280
:100E4000A041C4F2020167E040F22741C4F202016E
:100E5000884240DCA021C4F2020188425ED0B82161
:100E6000C4F20201884259D040F21041C4F202019A
:100E700052E045F26B41C5F6020188423CDC45F286
:100E80003041C5F60201884248D045F24441C5F6DA
:100E90000201884242D045F258413BE05821C4F259
:100EA000020188423AD07021C4F20201884235D052
:100EB0008821C4F202012FE040F2B841C4F20201DD
:100EC00088422BD045F20841C5F60201884225D060
:100ED00045F21C411EE040F22841C4F20201884262
:100EE0001CD040F24041C4F20201884216D040F2C8
:100EF0005841C4F202010FE045F26C41C5F602010F
:100F000088420BD045F29441C5F60201884205D0D3
:100F100045F28041C5F60201884269D1216EB8428E
:100F20000A6822F480720A6010DC6F21C4F20201A8
:100F300088421CDC3F21C4F20201884232DC1021CD
:100F4000C4F20201884252D028214AE040451ADC0E
:100F500040F23F41C4F2020188422ADC40F21041D3
:100F6000C4F20201884242D040F2284139E09F2178
:100F7000C4F20201884225DC7021C4F202018842D9
:100F800035D088212DE040F29F41C4F20201884211
:100F90001FDC40F27041C4F20201884227D040F2C7
:100FA00088411EE04021C4F2020188421FD058212E
:100FB00017E040F24041C4F20201884217D040F2EB
:100FC00058410EE0A021C4F2020188420FD0B8219E
:100FD00007E040F2B841C4F20201884207D040F273
:100FE000A041C4F20201884208BF206800E02068E6
:100FF000016821F0010101603068C0070BD001F0E9
:10100000E7FC401B0628F7D320206065032084F806
:10101000350001202EE12068B84210DC6F21C4F2B7
:10102000020188421CDC3F21C4F20201884232DC0A
:101030001021C4F20201884250D028214AE04045E4
:101040001ADC40F23F41C4F2020188422ADC40F23D
:101050001041C4F20201884240D040F2284139E0F8
:101060009F21C4F20201884225DC7021C4F20201F2
:10107000884233D088212DE040F29F41C4F2020122
:1010800088421FDC40F27041C4F20201884225D040
:1010900040F288411EE04021C4F2020188421DD086
:1010A000582117E040F24041C4F20201884215D0B5
:1010B00040F258410EE0A021C4F2020188420DD056
:1010C000B82107E040F2B841C4F20201884205D0DD
:1010D00040F2A041C4F2020188425ED1D4E9161266
:1010E00002F01F023F2303FA02F28A6040455EDCF1
:1010F0009F21C4F20201884214DC5721C4F202018C
:10110000884226DC1021C4F20201884200F0A2804D
:101110002821C4F20201884200F09C804021C4F2E0
:10112000020195E040F22741C4F2020188421EDC30
:10113000A021C4F20201884200F08C80B821C4F2E0
:101140000201884200F0868040F21041C4F20201A0
:101150007EE05821C4F2020188427BD07021C4F2A3
:101160000201884276D08821C4F2020170E040F288
:101170002841C4F2020188426CD040F24041C4F2DE
:101180000201884266D040F25841C4F202015FE099
:1011900021686FF00E020E4619E6D4E9161202F02D
:1011A0001F02012303FA02F24A604045A0DD45F226
:1011B0002F41C5F60201884216DC40F2B741C4F265
:1011C0000201884225DC40F27041C4F202018842EB
:1011D00040D040F28841C4F2020188423AD040F245
:1011E000A041C4F2020133E045F26B41C5F60201B1
:1011F00088421DDC45F23041C5F60201884229D003
:1012000045F24441C5F60201884223D045F25841D7
:101210001CE040F2B841C4F2020188421AD045F203
:101220000841C5F60201884214D045F21C410DE088
:1012300045F26C41C5F6020188420BD045F294415B
:10124000C5F60201884205D045F28041C5F602018B
:1012500088420BD1616EA26EE06E4A6030B10168C7
:1012600021F480710160D4E91C014160012084F8FF
:1012700035000020002184F83410BDE8F081000022
:10128000406D7047000000002DE9F04381B000215F
:10129000009140F220010446C2F2004140F26F4941
:1012A000A56DC4F20209086848F2B511C1F64E31C5
:1012B0002668A0FB01084E452F682A6815DC9F2090
:1012C000C4F2020086422BDC5720C4F202008642A0
:1012D0004FDC1020C4F20200864278D02820C4F2ED
:1012E0000200864273D040206CE045F22F40C5F6E4
:1012F0000200864227DC40F2B740C4F20200864278
:1013000043DC40F27040C4F2020086425FD040F2FB
:101310008840C4F20200864259D040F2A04051E019
:1013200040F22740C4F2020086423DDCA020C4F215
:10133000020086424BD0B820C4F20200864246D05A
:1013400040F210403EE045F26B40C5F60200864296
:1013500074DC45F23040C5F60200864200F0818020
:1013600045F24440C5F6020086427AD045F2584024
:1013700072E05820C4F20200864228D07020C4F2E5
:101380000200864223D088201CE040F2B840C4F21C
:10139000020086421BD045F20840C5F60200864294
:1013A0005FD045F21C4057E040F22840C4F20200F2
:1013B00086420CD040F24040C4F20200864206D081
:1013C00040F25840C4F20200864240F0ED84E06DE5
:1013D00000F01F01082000FA01F23A4200F01481E7
:1013E00040F20F40C4F20200864213DC6F20C4F2C8
:1013F0000200864200F38E803F20C4F20200864243
:1014000000F3CF801020C4F20200864200F0ED808D
:101410002820E5E04E4500F3898040F23F40C4F2C9
:101420000200864200F3C48040F21040C4F2020081
:10143000864200F0DA8040F22840D1E045F26C406C
:10144000C5F6020086420CD045F28040C5F6020087
:10145000864206D045F29440C5F60200864240F02E
:10146000A3842068E16D01F01F010368580727D5A8
:101470000420884010EA020722D01904686000F1B5
:101480008780980600F18C8440F20F40C4F202007D
:10149000864200F3AB836F20C4F20200864200F361
:1014A000E6833F20C4F20200864200F350841020FD
:1014B000C4F20200864200F06D84282000F066BC71
:1014C000980742D50220884010EA02073DD019044F
:1014D000686000F10E83980600F1988440F20F4096
:1014E000C4F20200864200F3AF836F20C4F2020010
:1014F000864200F311843F20C4F20200864200F3CA
:1015000056841020C4F20200864200F07384282022
:1015100000F06CBC9F20C4F20200864251DC7020B7
:10152000C4F20200864260D0882059E040F29F4019
:10153000C4F2020086424BDC40F27040C4F202006A
:10154000864252D040F288404AE0180740F12C848D
:1015500008208840104000F0278440F20F40C4F279
:101560000200864200F32C836F20C4F20200864200
:1015700000F34F833F20C4F20200864200F39383BE
:101580001020C4F20200864200F0B1832820A9E3B3
:10159000D80300F1B482A16C002940F00C8300F064
:1015A00003BC4020C4F2020086421ED0582017E03F
:1015B00040F24040C4F20200864216D040F2584049
:1015C0000EE0A020C4F2020086420ED0B82007E050
:1015D00040F2B840C4F20200864206D040F2A04079
:1015E000C4F20200864240F08E8220680423006824
:1015F000184209D02068036823F004030360AA603E
:10160000606D40F001006065012000FA01F23A428D
:1016100070D040F20F40C4F20200864210DC6F200E
:10162000C4F2020086421CDC3F20C4F20200864263
:1016300032DC1020C4F20200864251D028204AE059
:101640004E451ADC40F23F40C4F2020086422ADCDA
:1016500040F21040C4F20200864241D040F22840DD
:1016600039E09F20C4F20200864225DC7020C4F2DB
:101670000200864234D088202DE040F29F40C4F220
:10168000020086421FDC40F27040C4F20200864233
:1016900026D040F288401EE04020C4F2020086427C
:1016A0001ED0582017E040F24040C4F202008642AB
:1016B00016D040F258400EE0A020C4F2020086424C
:1016C0000ED0B82007E040F2B840C4F202008642D3
:1016D00006D040F2A040C4F20200864240F01682DA
:1016E0002068406900F0800020B1AA60606D40F081
:1016F00002006065042000FA01F23A4270D040F224
:101700000F40C4F20200864210DC6F20C4F20200D7
:1017100086421CDC3F20C4F20200864232DC1020EC
:10172000C4F20200864251D028204AE04E451ADC1D
:1017300040F23F40C4F2020086422ADC40F21040F0
:10174000C4F20200864241D040F2284039E09F2096
:10175000C4F20200864225DC7020C4F202008642F8
:1017600034D088202DE040F29F40C4F2020086422F
:101770001FDC40F27040C4F20200864226D040F2E4
:1017800088401EE04020C4F2020086421ED058204D
:1017900017E040F24040C4F20200864216D040F208
:1017A00058400EE0A020C4F2020086420ED0B820BD
:1017B00007E040F2B840C4F20200864206D040F290
:1017C000A040C4F20200864240F0A6812068006872
:1017D00000F0020020B1AA60606D40F00400606576
:1017E000102000FA01F139427ED040F20F40C4F2DD
:1017F0000200864210DC6F20C4F2020086421CDC2C
:101800003F20C4F20200864232DC1020C4F2020003
:10181000864251D028204AE04E451ADC40F23F4033
:10182000C4F2020086422ADC40F21040C4F20200F8
:10183000864241D040F2284039E09F20C4F20200A5
:10184000864225DC7020C4F20200864234D0882013
:101850002DE040F29F40C4F2020086421FDC40F2BD
:101860007040C4F20200864226D040F288401EE05A
:101870004020C4F2020086421ED0582017E040F2F9
:101880004040C4F20200864216D040F258400EE0BA
:10189000A020C4F2020086420ED0B82007E040F239
:1018A000B840C4F20200864206D040F2A040C4F222
:1018B0000200864240F036812668082230681042D5
:1018C00012D0A960206801684903016806D4C905DF
:1018D00006D4016821F00801016001E008034FD43B
:1018E000216C09B120468847E06D202100F01F00DF
:1018F0008140394200F0AE8040F20F432268C4F2CA
:1019000002039A4210DC6F23C4F202039A421CDCE9
:101910003F23C4F202039A4236DC1023C4F20203CE
:101920009A4255D028234EE04A451ADC40F23F4304
:10193000C4F202039A422EDC40F21043C4F20203C6
:101940009A4245D040F228433DE09F23C4F202036F
:101950009A4229DC7023C4F202039A4238D08823C9
:1019600031E040F29F43C4F202039A4223DC40F28A
:101970007043C4F202039A422AD040F2884322E024
:10198000A16C0029AED1AFE74023C4F202039A4212
:101990001ED0582317E040F24043C4F202039A429B
:1019A00016D040F258430EE0A023C4F202039A423C
:1019B0000ED0B82307E040F2B843C4F202039A42C3
:1019C00006D040F2A043C4F202039A4240F0AC8039
:1019D0002268102312681A423CD0A96094F835207E
:1019E0002168042A0A681DD122F016020A604A6999
:1019F00022F080024A61226C0AB9A26C1AB10A680C
:101A000022F008020A603F2101FA00F0A8600120DC
:101A100084F83500216D0020002984F8340040F05E
:101A2000CA80C1E1500308680CD4C0050ED4086810
:101A300020F010000860012084F83500002084F8B0
:101A4000340003E0000301D4616C00E0E16B09B1F4
:101A500020468847606D002800F0A681606DC007B1
:101A600000F0A580042084F8350040F20F41206882
:101A7000C4F20201884210DC6F21C4F202018842E4
:101A80001CDC3F21C4F2020188424FDC1021C4F269
:101A9000020188426FD0282167E048451ADC40F2F5
:101AA0003F41C4F20201884247DC40F21041C4F2D7
:101AB000020188425FD040F2284156E09F21C4F2E3
:101AC0000201884242DC7021C4F20201884252D0F5
:101AD00088214AE040F29F41C4F2020188423CDC86
:101AE00040F27041C4F20201884244D040F2884181
:101AF0003BE0D80376D4616C00295CD154E1216CC1
:101B0000002958D150E10823304670E530680020A4
:101B100000287FF4EAADEDE53068002000287FF46E
:101B20005AAE5DE60422C9E6022353E74021C4F21F
:101B3000020188421FD0582117E040F24041C4F210
:101B40000201884217D040F258410EE0A021C4F2B1
:101B5000020188420FD0B82107E040F2B841C4F238
:101B60000201884207D040F2A041C4F2020188423B
:101B700008BF206800E020684FEA9821026822F040
:101B800001020260009801300090884203D820686A
:101B90000068C007F6D120680068C0074FF0030056
:101BA00008BF012084F83500002084F83400E16C7F
:101BB000002900F0F9802046884701B0BDE8F08395
:101BC0004E4532DC40F23F40C4F20200864271DCF6
:101BD00040F21040C4F20200864200F0888040F2D9
:101BE00028407FE0E16B0029E5D1DDE04E454BDC8C
:101BF00040F23F40C4F20200864200F3AF8040F260
:101C00001040C4F20200864200F0C48040F2284036
:101C1000BCE09F20C4F20200864254DC7020C4F273
:101C20000200864263D088205CE040F29F40C4F20C
:101C3000020086424EDC40F27040C4F2020086424E
:101C400055D040F288404DE04E4571DC40F23F40B7
:101C5000C4F20200864200F3B18040F21040C4F2A8
:101C60000200864200F0C68040F22840BEE09F207D
:101C7000C4F2020086427ADC7020C4F2020086427E
:101C800000F08880882081E040F29F40C4F202008A
:101C9000864273DC40F27040C4F20200864279D082
:101CA00040F2884072E04020C4F2020086421ED01A
:101CB000582017E040F24040C4F20200864216D09D
:101CC00040F258400EE0A020C4F2020086420ED03E
:101CD000B82007E040F2B840C4F20200864206D0C5
:101CE00040F2A040C4F20200864240F09480266890
:101CF0006FF01C02306810403060012000FA01F1E2
:101D00006960606584F835000020E16C84F8340077
:101D100000297FF450AF47E09F20C4F202008642C2
:101D200055DC7020C4F20200864263D088205DE05A
:101D300040F29F40C4F2020086424FDC40F2704005
:101D4000C4F20200864255D040F288404EE0402066
:101D5000C4F2020086421DD0582017E040F24040F5
:101D6000C4F20200864215D040F258400EE0A02096
:101D7000C4F2020086420DD0B82007E040F2B8401D
:101D8000C4F20200864205D040F2A040C4F2020034
:101D9000864243D126686FF0080130680840306001
:101DA000216C00297FF407AF01B0BDE8F08340202B
:101DB000C4F2020086421DD0582017E040F2404095
:101DC000C4F20200864215D040F258400EE0A02036
:101DD000C4F2020086420DD0B82007E040F2B840BD
:101DE000C4F20200864205D040F2A040C4F20200D4
:101DF000864216D126686FF01401306808403060C2
:101E0000012084F83500002084F83400E16B0029BB
:101E10007FF4D1AEC8E76FF00E026BE76FF00401FC
:101E2000BBE76FF00A01E8E72DE9F04381B0044613
:101E300000F0CEFD002C00F0738140F26F480546A3
:101E40002068C4F20208404515DC9F21C4F202015B
:101E500088422BDC5721C4F20201884251DC102158
:101E6000C4F2020188427AD02821C4F202018842D9
:101E700075D040216EE045F22F41C5F6020188423F
:101E800027DC40F2B741C4F20201884245DC40F24F
:101E90007041C4F20201884261D040F28841C4F22C
:101EA000020188425BD040F2A04153E040F227415A
:101EB000C4F2020188423FDCA021C4F20201884240
:101EC0004DD0B821C4F20201884248D040F21041FE
:101ED00040E045F26B41C5F60201884200F3908074
:101EE00045F23041C5F60201884200F09C8045F27F
:101EF0004441C5F60201884200F0958045F2584100
:101F00008CE05821C4F20201884228D07021C4F22A
:101F10000201884223D088211CE040F2B841C4F27B
:101F2000020188421BD045F20841C5F602018842F1
:101F300079D045F21C4171E040F22841C4F202011F
:101F400088420CD040F24041C4F20201884206D0DF
:101F500040F25841C4F20201884240F0118240F23E
:101F60000F420221C4F2020284F8351090424FF071
:101F7000000184F8341012DC6F21C4F2020188429F
:101F800020DC3F21C4F20201884200F3918010213D
:101F9000C4F20201884200F0B0802821A7E0404549
:101FA0001EDC40F23F41C4F20201884200F3878008
:101FB00040F21041C4F20201884200F09E8040F2DB
:101FC000284194E09F21C4F20201884200F38080FE
:101FD0007021C4F20201884200F08F80882186E0DF
:101FE00040F29F41C4F20201884278DC40F2704125
:101FF000C4F20201884200F0808040F2884176E01D
:1020000045F26C41C5F6020188420CD045F2804190
:10201000C5F60201884206D045F29441C5F6020198
:10202000884240F0AD8104F1080E022084F83500AA
:1020300000209EE80640A1F1800384F83400B3FA42
:1020400083F320685B094029D4E90579D4E9076C5A
:1020500005684FEA83336FF3101508BF102345EA74
:10206000D2014AF6F8321943CAF2FD7241EADE01A2
:102070004CF6CD4341EAD701024441EAD901CCF6FE
:10208000CC4341EAD601A2FB032341EA1C110160C3
:102090006FF0030000EA9300E0652046FEF7D8FAEF
:1020A000E16D012201F01F0102FA01F141609BE0A4
:1020B0004021C4F2020188421FD0582117E040F2AB
:1020C0004041C4F20201884217D040F258410EE06C
:1020D000A021C4F2020188420FD0B82107E040F2EB
:1020E000B841C4F20201884207D040F2A041C4F2D4
:1020F0000201884208BF206800E02068016821F0E2
:102100000101016027683868C0070DD000F060FC4D
:10211000401B0628F6D320206065032084F8350094
:10212000012001B0BDE8F08348F23F0104F1080549
:102130003868CFF6106108402ECD0843A1691043DE
:10214000E2691843236A0543606A2943042841EA87
:10215000020141EA030103D1D4E90B2311431943DE
:1021600041F20002C5F600421268B2F1005F17D3D7
:102170006268A2F12903202B06D23F25CCF2C0359C
:1021800025FA03F3DB0706D1A2F14F030022042B4B
:1021900038BF012200E00122002A18BF41F480115B
:1021A00039600428796921F0070141EA000510D15E
:1021B000D4E90A1045EA010558B12046FEF7A8FB0C
:1021C00038B140206065012084F8350001B0BDE8D9
:1021D000F08320467D61FEF73BFAE16D3F2201F07E
:1021E0001F0102FA01F181602068404519DC9F213E
:1021F000C4F20201884231DC5721C4F20201884254
:1022000056DC1021C4F20201884200F0918028219E
:10221000C4F20201884200F08B804021C4F2020126
:1022200084E045F22F41C5F6020188422BDC40F2E2
:10223000B741C4F20201884248DC40F27041C4F266
:102240000201884274D040F28841C4F202018842FF
:102250006ED040F2A041C4F2020167E040F2274193
:10226000C4F20201884240DCA021C4F2020188428B
:102270005ED0B821C4F20201884259D040F2104128
:10228000C4F2020152E045F26B41C5F602018842F8
:102290003CDC45F23041C5F60201884248D045F2A7
:1022A0004441C5F60201884242D045F258413BE024
:1022B0005821C4F2020188423AD07021C4F20201CE
:1022C000884235D08821C4F202012FE040F2B841A3
:1022D000C4F2020188422BD045F20841C5F6020142
:1022E000884225D045F21C411EE040F22841C4F24C
:1022F000020188421CD040F24041C4F202018842EF
:1023000016D040F25841C4F202010FE045F26C4190
:10231000C5F6020188420BD045F29441C5F6020190
:10232000884205D045F28041C5F6020188421FD19E
:102330002046FEF71DFAA068802801D100206060C9
:1023400004F160036068C7B201380ECB07280F6044
:10235000536009D82046FEF783FA04F16C0200238B
:1023600007CA03604A6003E000206067C4E91B00FD
:1023700000206065012184F8351001B0BDE8F083CC
:102380004020C9E600000000F0B581B0A8B30446C3
:1023900090F83400012802D1022001B0F0BD0120E4
:1023A00084F8340094F83500012820D1022084F804
:1023B00035000020606540F20F462068C4F2020636
:1023C00040F26F47B042C4F2020719DC6F25C4F235
:1023D0000205A84225DC3F25C4F20205A8423BDCE9
:1023E0001025C4F20205A8425BD0282553E04FF423
:1023F00000606065002084F83400012001B0F0BD69
:10240000B8421ADC40F23F45C4F20205A8422ADC79
:1024100040F21045C4F20205A84242D040F22845DD
:1024200039E09F25C4F20205A84225DC7025C4F2DC
:102430000205A84235D088252DE040F29F45C4F220
:102440000205A8421FDC40F27045C4F20205A84212
:1024500027D040F288451EE04025C4F20205A8427C
:102460001FD0582517E040F24045C4F20205A842AB
:1024700017D040F258450EE0A025C4F20205A8424C
:102480000FD0B82507E040F2B845C4F20205A842D3
:1024900007D040F2A045C4F20205A84208BF206858
:1024A00000E02068056825F0010505602046FEF77C
:1024B00057FA2068B04210DC6F21C4F20201884252
:1024C0001CDC3F21C4F20201884232DC1021C4F23C
:1024D0000201884251D028214AE0B8421ADC40F279
:1024E0003F41C4F2020188422ADC40F21041C4F2AA
:1024F0000201884241D040F2284139E09F21C4F2D4
:102500000201884225DC7021C4F20201884234D0E5
:1025100088212DE040F29F41C4F2020188421FDC75
:1025200040F27041C4F20201884226D040F2884154
:102530001EE04021C4F2020188421ED0582117E05B
:1025400040F24041C4F20201884216D040F25841A4
:102550000EE0A021C4F2020188420ED0B82107E0AB
:1025600040F2B841C4F20201884206D040F2A041D4
:10257000C4F20201884240F0298121680B25226CB7
:102580000B6865F344030B601AB10A6842F0080255
:102590000A60B84219DC9F21C4F20201884231DC92
:1025A0005721C4F20201884256DC1021C4F2020114
:1025B000884200F091802821C4F20201884200F094
:1025C0008B804021C4F2020184E045F22F41C5F620
:1025D000020188422BDC40F2B741C4F2020188427A
:1025E00048DC40F27041C4F20201884274D040F2EB
:1025F0008841C4F2020188426ED040F2A041C4F288
:10260000020167E040F22741C4F20201884240DC47
:10261000A021C4F2020188425ED0B821C4F20201B6
:10262000884259D040F21041C4F2020152E045F212
:102630006B41C5F6020188423CDC45F23041C5F6EB
:102640000201884248D045F24441C5F60201884261
:1026500042D045F258413BE05821C4F20201884281
:102660003AD07021C4F20201884235D08821C4F2E8
:1026700002012FE040F2B841C4F2020188422BD09F
:1026800045F20841C5F60201884225D045F21C41B9
:102690001EE040F22841C4F2020188421CD040F200
:1026A0004041C4F20201884216D040F25841C4F2BF
:1026B00002010FE045F26C41C5F6020188420BD0E1
:1026C00045F29441C5F60201884205D045F28041A9
:1026D000C5F60201884272D1216E0A68D20303D581
:1026E0000A6842F480720A60E16E19B10A6842F425
:1026F00080720A60B04210DC6F21C4F2020188428D
:102700001CDC3F21C4F20201884232DC1021C4F2F9
:102710000201884252D028214AE0B8421ADC40F235
:102720003F41C4F2020188422ADC40F21041C4F267
:102730000201884242D040F2284139E09F21C4F290
:102740000201884225DC7021C4F20201884235D0A2
:1027500088212DE040F29F41C4F2020188421FDC33
:1027600040F27041C4F20201884227D040F2884111
:102770001EE04021C4F2020188421FD0582117E018
:1027800040F24041C4F20201884217D040F2584161
:102790000EE0A021C4F2020188420FD0B82107E068
:1027A00040F2B841C4F20201884207D040F2A04191
:1027B000C4F20201884208BF206800E02068016876
:1027C00041F001010160002001B0F0BD2168052544
:1027D000226C0B68002A65F343030B603FF4D9AE0B
:1027E0000A6842F00402D3E6B0B5044600F0F0F8FF
:1027F00040F22A110546C2F20041621C097818BF56
:102800000C4400BF00F0E4F8401BA042FAD3B0BD76
:102810002DE9F04F83B00C68002C00F0C68000F169
:10282000264242F2004702F1FF72C5F602074FEA64
:10283000B22201920A22B84208BF092200250027CD
:102840004FF0010A009209E00C68043734FA0AF2EA
:102850000AF1010A05F1020500F0A780AAF10109B9
:10286000012202FA09FE14EA0E08EDD0D1F804B0F4
:102870000BF00304A4F1010CBCF1010F11D80322E9
:102880008668AA40CB6826EA0202AB401A438260FF
:10289000CBF30013426822EA0E0203FA09F31A434B
:1028A0004260032C1ED00323C268AB40022C22EAF4
:1028B00003028B6803FA05F342EA0302C26011D1F6
:1028C0006FF0030207F01C0602EA59020F230244CC
:1028D00003FA06F4D2F820C00B692CEA0404B340D2
:1028E0002343136203230268AB404E689A4306F009
:1028F0000303AB4016F4403F42EA03020260A3D058
:1029000044F2F44340F2084EC5F60203C5F6000E49
:102910001A6842F002021A601A6807F00C0302F00B
:1029200002020292029A29F00302019C009E092CE5
:1029300038BF26460F2452F80EC09C402CEA0404EF
:1029400006FA03F34FF0B04C234342F80E30DCF8A4
:1029500000204B6842EA0806DC0258BF22EA08065B
:102960009C02CCF8006040F2040CC5F6000CDCF8C8
:10297000002042EA080658BF22EA08069C03CCF869
:102980000060DCF8802042EA080658BF22EA080608
:10299000DB03CCF88060DCF87C2042EA080658BFF4
:1029A00022EA0806CCF87C604EE703B0BDE8F08F61
:1029B000002A08BF09048161704700000000000080
:1029C00041F20000C5F600400068000C70470000AE
:1029D0004CF2C000C2F200400068704700000000E6
:1029E00040F22A104CF2C001C2F20040C2F2004193
:1029F00000780A681044086070470000000000007A
:102A000080B5032000F0D0F802F002F944F218413A
:102A100048F2E013C5F60201C0F600030A6809682F
:102A200001F00F01C2F30322595C9A5C01F01F010F
:102A300002F01F02D04040F22402C2F2004220FA0B
:102A400001F1116040F22001C2F2004108600F2044
:102A500000F00AF800281CBF012080BD00F080F8BB
:102A6000002080BD00000000B0B540F22A11C2F283
:102A70000041097801B3044640F22000C2F2004050
:102A80004FF47A72B2FBF1F10068B0FBF1F003F0A1
:102A900003F80F2C4FF001050CD858B94FF0FF3058
:102AA00000222146002500F06FF840F22C10C2F2FF
:102AB000004004602846B0BD0120B0BD0000000009
:102AC00010B54EF6A05E4178CEF2000E90F800C030
:102AD0004EF8081CDEF8001021F00101CEF80010BD
:102AE00041684EF8041C017BC37A827A447B1B0642
:102AF00043EA0171837B41EAC241C27B41EA8441DE
:102B0000447A41EA4341007A41EA024141EA042120
:102B100041EA400040EA0C00CEF8000010BD000081
:102B20004EF62450CEF20000BFF35F8F016821F40F
:102B30008031016000210167704700000000000043
:102B40004EF6245140F00100CEF2000108670868FB
:102B500040F480300860BFF34F8FBFF36F8F704732
:102B600081B044F2F440C5F60200016841F0020170
:102B70000160006800F002000090009801B070470A
:102B800080B505F0D1FA80BD70B514460D460646F5
:102B900005F0DAFA2946224603F092F8014630465B
:102BA00005F0DAFA70BD000080B505F0E9FA80BDE5
:102BB00001680122C0F8D824002280F8CC2488695A
:102BC00040F000608861486D40F08052002042F083
:102BD00003024A65704700007047000000000000D3
:102BE000026800205162704710B5D0F800C0DCF8D0
:102BF0002400D9B1DCF82830B1F1010E00EB134309
:102C00000CD00021002000BF0CEB81010130D1F875
:102C10000441C1B28E4503EB1443F5D80CEB8E0092
:102C200043EA0241C0F80411002010BD40EA02400E
:102C3000CCF82800002010BD80B5D0F8E00404F0E6
:102C40008FF980BD0000000080B501EBC10200EBF0
:102C50008202D0F8E004126A04F0EEF880BD0000B1
:102C600080B501EBC10200EB8202D0F8E004D2F89B
:102C7000602204F039F980BD80B5D0F8E00404F09A
:102C800073F980BD0000000080B501F00F02090655
:102C900002EBC20200EB820303F1140258BF03F5FA
:102CA00015720068114605F043F880BD0000000071
:102CB00010B5044601F00F000A0600EBC00104EB5A
:102CC000810205D402F51571002382F8553203E024
:102CD00002F114010123537594F894240870012A19
:102CE00001D1022010BD012084F89404206804F072
:102CF00087FD002084F8940410BD0000000000004F
:102D0000B0B50279044601F00F00904201D90120CC
:102D1000B0BD090609D400EBC001002304EB810219
:102D200002F5157182F8553207E000EBC00101236E
:102D300004EB810202F11401537594F894240025E8
:102D40008D70012A087001D10220B0BD012084F8E5
:102D50009404206804F0A8FE284684F89454B0BD7A
:102D600001F00F0101EBC10100EB8100D0F8680216
:102D70007047000000000000B0B5054601F00F00EC
:102D80000C0600EBC00105EB810C05D40CF51571A8
:102D900000248CF8554204E00CF1140101248CF855
:102DA00015404C7808706FF3DF228A60002C0B719D
:102DB00018BF4883022B01D10020487195F8940474
:102DC000012801D10220B0BD012085F894042868B3
:102DD00004F042FC002085F89404B0BD000000001F
:102DE00080B501F00F0E0EEBCE0100EB810C00213F
:102DF000CCE998238379CCF868128CF855120CF53D
:102E00001571012B8CF854E208BFCCF870220068D1
:102E10001A4604F099FE002080BD0000000000006A
:102E2000B0B50446007901F00F05854201D90120B3
:102E3000B0BD080609D401EBC100002204EB8000FC
:102E400000F5157180F8552207E005EBC500012259
:102E500004EB800000F11401427594F894240120E1
:102E60008870012A0D7001D10220B0BD84F894044D
:102E7000206804F041FE2DB9A179206804F29C423B
:102E800004F0E2FD002084F89404B0BD00000000CE
:102E900010B501F00F0C01240CEBCC0100EB810EFE
:102EA000714601F814CF4FF0000CC1F814C090F82F
:102EB00006C04C70CA60BCF1010F0B6108BFCEF8B0
:102EC00030200068624604F03FFE002010BD000084
:102ED0002DE9F04F83B006688246304604F0CCFFFF
:102EE00010B103B0BDE8F08FDAF8000004F0F4FF91
:102EF0000028F6D0D6F80808C0F30D20CAF8D4048C
:102F0000DAF8000004F0E8FF800705D5DAF80000E1
:102F1000416901F002014161DAF8000006F500673D
:102F200004F0DAFFC00640D5DAF80000816921F02C
:102F300010018161346A04F00F05C4F34340062890
:102F40001CD002282BD147F6F070044027D005EBA7
:102F5000C50022090AEB80053046D5F8601204F05E
:102F6000BFFFD5F86002D5F8681200EB1410C5F861
:102F7000600201EB1410C5F8680210E00AF29C41EF
:102F80000822304604F0ACFF05EBC500C4F30A117B
:102F90000AEB8000D0F868221144C0F86812DAF811
:102FA0000000816941F010018161DAF80000CDE98B
:102FB000017604F091FF000370D5DAF8000004F008
:102FC00067FF00286AD00646029800F530654FF08A
:102FD000000940F2572400270BE000BFB9EB560F61
:102FE00007F101074FEA560605F1200504F1240414
:102FF00054D0F007F2D05FFA87F8DAF800004146C3
:1030000004F062FF8346C00710D15FEA0B7016D44C
:103010005FEACB601CD45FEA8B701ED45FEA8B60E2
:1030200033D45FEA8B40D9D534E000BF0120A860DB
:103030005046394602F08CFE5FEA0B70E8D5082056
:10304000A8605046394602F05BFE5FEACB60E2D5ED
:103050001020A8605FEA8B70E0D5029840690006F6
:1030600004D50199486840F4806048601AF804006B
:10307000012805D1504641460AF8049000F04CFA68
:103080000220A8605FEA8B60CBD52020A8605FEAB1
:103090008B40A3D54FF40050A8609FE7DAF80000FA
:1030A00004F01AFF400340F18780DAF8000004F0D2
:1030B000E7FE002800F0808006460AF29C4000905F
:1030C000029800F510680AF1170B4FF0000900276D
:1030D0000BE000BFB9EB560F07F101074FEA5606A8
:1030E00008F120080BF1240B66D0F007F2D0FCB2F7
:1030F000DAF80000214604F0D3FE0546C0070BD1E4
:10310000280731D4E80634D4680637D4A8073AD45F
:103110002806DFD54BE000BF019A07F00F0001231E
:1031200003FA00F0516B21EA00005063C8F8083040
:103130009AF80600012811D1DBF80500DBF8091028
:103140000844CBF809004FB9DBF80D0030B9DAF8C4
:1031500000000121009A04F077FC00BF5046214690
:10316000FFF772FD2807CDD50820C8F80800E8064B
:10317000CAD51020C8F808006806C7D54020C8F88E
:103180000800A807C4D50298394604F041FE9BF810
:103190000000012805D1504621468BF8009000F030
:1031A000B3F90220C8F8080028067FF593AF50460F
:1031B000394602F039FE8DE7DAF8000004F08CFEA3
:1031C000B0F1FF3FDDE901981ADCD9F8040020F0E6
:1031D0000100C9F804009AF8CC04012807D10020A6
:1031E0008AF8CC0400215046FFF7F6FC02E0504676
:1031F00000F086FADAF80000416901F0004141610F
:10320000DAF8000004F068FE00050CD5D9F80800D3
:10321000C00702D0504600F0C3FADAF80000416956
:1032200001F400614161DAF8000004F055FE00018C
:1032300018D5DAF80000416901F0006141619AF89F
:10324000CC1419B1504600F0ABFA0BE001218AF81A
:10325000CC14406D0121C0F38300CAF8D00450465D
:10326000FFF7BAFCDAF8000004F036FEC00460D5BF
:10327000D9F80400102120F00100C9F80400DAF8A0
:10328000000004F0C5FD9AF80400F8B19AF80410A3
:1032900008F5106000224FF67F3300BF83600132D3
:1032A00007688A4227F400170760C0F80832D0F890
:1032B000007227F40017C0F80072D0F8007247F0CF
:1032C0000067C0F8007200F12000E7D3D9F81C00B5
:1032D00040F00110C9F81C009AF80F0040B1D9F86D
:1032E000840040F00B00C9F8840009F1440008E0B4
:1032F000D9F8140042F22B010843C9F8140009F16F
:10330000100001680AF29C4241F00B010160D9F8FB
:10331000000020F4FE60C9F800009AF80610DAF800
:10332000000004F091FBDAF80000416901F48051DB
:103330004161DAF8000004F0CFFD80041CD5DAF812
:10334000000004F0D5F9DAF8000004F085FD8AF8F1
:103350000700DAF8004001F01FFC9AF80720014648
:10336000204604F035FE504600F0B6F9DAF80000C9
:10337000416901F400514161DAF8000004F0ACFD4C
:10338000000708D5504600F0C3F9DAF8000041699B
:1033900001F008014161DAF8000004F09DFD00062B
:1033A0001DD5D8F8180020F08000C8F818009AF849
:1033B0000400022813D3012440F27B2506E000BF5D
:1033C0009AF8040001342435844208D21AF8050022
:1033D0000128F5D1E1B25046FFF756FCF0E7DAF8E4
:1033E000000004F079FDC00227D59AF804000228F5
:1033F0001DD308F512640AF13C050126012706E0F9
:103400009AF8040001372034243587420FD220680F
:10341000B0F1FF3FF4DC28780128F1D147F08000BB
:1034200005F8016CC1B25046FFF72EFCE8E7DAF868
:103430000000416901F480114161DAF8000004F0F4
:103440004BFD800237D59AF8040002282DD308F5E9
:1034500032600AF51F710122012306E09AF8047018
:10346000013320302431BB421FD20768B7F1FF3F40
:10347000F4DC0E78012E02BFDAF8D46486EA17472E
:103480005FEAC777EAD101F8012CD8F8187047F045
:103490008007C8F81870D8F814703F06DED4D9F841
:1034A000040040F40070C9F80400DAF80000416933
:1034B00001F400114161DAF8000004F00DFD400054
:1034C00008D55046FFF7B8FBDAF80000416901F073
:1034D00080414161DAF8000004F0FEFC40077FF50E
:1034E00000ADDAF800004468600702D55046FFF7E7
:1034F000C3FBDAF8000041682143416003B0BDE836
:10350000F08F00000000000080B5D0F8E00403F068
:103510008BFD80BD0000000080B5D0F8E00403F012
:1035200097FD80BD00000000B0B582B000286BD0D0
:10353000044690F8950428B9002084F894042046A5
:1035400000F076F8032084F89504206804F074FAFB
:10355000D4E9000194F810C0D4E90223CDF800C0EA
:1035600004F0D6F800284CD12068002104F0E0FCDB
:10357000002846D194F804C0BCF1000F1CD094F888
:1035800004C04FF0010E002300216046BCF1010F82
:1035900098BF704600EBC000820000202518243040
:1035A00082422975E98501F1010185F815E02B7644
:1035B000EB612B626B62F1D1BCF1000F18D00CEB08
:1035C000CC00002180000022002300BFA518243277
:1035D000904285F8543203F1010385F8551285F8BD
:1035E0005812C5F85C12C5F86012C5F86412EDD126
:1035F000D4E90001257CD4E90223009504F068F9A0
:1036000028B1022084F89504012002B0B0BD00204A
:103610006074012084F89504207B012802D12046A3
:10362000FFF7C6FA206804F043F9002002B0B0BDED
:10363000B0B5B8B0044602A8C0210025CDE9365582
:10364000CDE934553395FCF7BDFE00212068C4F266
:103650000801884201D038B0B0BD4FF480200290FC
:103660004FF44010249002A8039500F061FC08B1CB
:10367000FDF7F2FA00F0D4F844F2D84433A9C5F6C5
:103680000204A06840F00100A060A06800F0010002
:10369000019001984FF4C0503390022034900020E4
:1036A000CDE935000A2037900020C5F60200FFF76B
:1036B000AFF82068002140F0006020602068002200
:1036C00000F00060019001986520FFF75DFA652029
:1036D000FFF756FA38B0B0BD10B5C179044631B124
:1036E000022901D1012102E0FDF7B6FA0121D4F847
:1036F000E00403F025FDD4F8E00403F0D1FC10BD94
:1037000080B5D0F8E00403F0FFFC80BD00000000AD
:1037100080B5D0F8E00403F003FD80BD0000000098
:1037200010B5044690F89404012801D1022010BD80
:10373000012084F894046174206804F02DFC0020BA
:1037400084F8940410BD000080B5D0F8E02400F2A5
:103750009C41104603F000FD80BD00000000000009
:1037600010B5044690F89404012801D1022010BD40
:103770002068012184F89414C168490606D5617B4C
:10378000012903D1816B41F48031816304F014FB82
:10379000206804F07DF8002084F8940410BD000037
:1037A00010B50446D0F8E00403F012FD2068D0F80C
:1037B000001E41F00101C0F8001EE07A002808BF99
:1037C00010BD4EF61050CEF20000016841F0060127
:1037D000016010BD00000000B0B544F60C05C5F650
:1037E000020529684907296805D401F00701081A6C
:1037F00018BF0120B0BD21F0070108432860FFF782
:10380000E7F8044655F8080C800407D4FFF7E0F801
:10381000001BB0F57A7FF5D90120B0BD0020B0BD06
:1038200044F60C00C5F60200016841F080710160A9
:10383000704700000000000080B501F0ADF944F2CF
:10384000204148F2E012C5F60201C0F60002096804
:10385000C1F30211515C01F01F01C84080BD00009E
:1038600080B544F2304EC5F6020E5EF8083C5EF8B4
:10387000081CC1F3051C5EF8041CBCF1000FDEF847
:10388000042016D0C2F3CC0201F00101514303F031
:103890000303022B00EE101AB8EE400A0ED0012BE3
:1038A0000FD01BB95EF8301C89060DD49FED341A79
:1038B00018E000218160C0E9001180BD9FED2F1A42
:1038C00010E09FED2D1A0DE05EF8301C49F2000269
:1038D000C0F2D032C1F3C10122FA01F101EE101A97
:1038E000B8EE411ADEF800109FED263A6FF35F2123
:1038F00002EE101ADEF80010C1F34621B8EE422A9B
:1039000000EE032A00EE10CAB7EE003AB8EE400A05
:1039100081EE000A32EE031A02EE101AB8EE422AC5
:1039200020EE010A32EE031A80EE011ABCEEC11A33
:1039300080ED001ADEF80010C1F3064101EE101A06
:10394000B8EE411A31EE031A80EE011ABCEEC11A2C
:1039500080ED011ADEF80010C1F3066101EE101AC5
:10396000B8EE411A31EE031A80EE010ABCEEC00A2D
:1039700010EE101A816080BD0024744A20BCBE4B3A
:103980000024744C0000003980B544F2384EC5F66E
:10399000020E5EF8103C5EF8101CC1F3053C5EF8A8
:1039A0000C1CBCF1000FDEF8042014D0C1F3001190
:1039B000C2F3CC02514300EE101A03F003010229B6
:1039C000B8EE400A0CD071B95EF8381C89060DD4E7
:1039D0009FED341A18E000218160C0E9001180BD1C
:1039E0009FED2F1A10E09FED2D1A0DE05EF8381CA8
:1039F00049F20002C0F2D032C1F3C10122FA01F152
:103A000001EE101AB8EE411ADEF800109FED263ACA
:103A10006FF35F2102EE101ADEF80010C1F34621A9
:103A2000B8EE422A00EE032A00EE10CAB7EE003AC2
:103A3000B8EE400A81EE000A32EE031A02EE101AC6
:103A4000B8EE422A20EE010A32EE031A80EE011A85
:103A5000BCEEC11A80ED001ADEF80010C1F3064179
:103A600001EE101AB8EE411A31EE031A80EE011A77
:103A7000BCEEC11A80ED011ADEF80010C1F3066138
:103A800001EE101AB8EE411A31EE031A80EE010A67
:103A9000BCEEC00A10EE101A816080BD0024744A8A
:103AA00020BCBE4B0024744C000000390000000014
:103AB00080B544F2404EC5F6020E5EF8183C5EF842
:103AC000181CC1F3055C5EF8141CBCF1000FDEF895
:103AD000042014D0C1F30021C2F3CC02514300EE04
:103AE000101A03F003010229B8EE400A0CD071B994
:103AF0005EF8401C89060DD49FED341A18E00021B1
:103B00008160C0E9001180BD9FED2F1A10E09FED8C
:103B10002D1A0DE05EF8401C49F20002C0F2D032CE
:103B2000C1F3C10122FA01F101EE101AB8EE411AF7
:103B3000DEF800109FED263A6FF35F2102EE101AB7
:103B4000DEF80010C1F34621B8EE422A00EE032A47
:103B500000EE10CAB7EE003AB8EE400A81EE000A55
:103B600032EE031A02EE101AB8EE422A20EE010AD3
:103B700032EE031A80EE011ABCEEC11A80ED001A73
:103B8000DEF80010C1F3064101EE101AB8EE411A3A
:103B900031EE031A80EE011ABCEEC11A80ED011A53
:103BA000DEF80010C1F3066101EE101AB8EE411AFA
:103BB00031EE031A80EE010ABCEEC00A10EE101AB4
:103BC000816080BD0024744A20BCBE4B0024744C2C
:103BD000000000390000000080B584B0024641F6C4
:103BE000FF7300209B1A70EB010329DB40F2FF33C7
:103BF0009B1A70EB01034FDA82F480630B4300F0F1
:103C0000AD8082F400630B4300F0BB8082F48052ED
:103C1000114340F07A8144F20041C5F60201086D7B
:103C2000C0F30232042A00F25D8148F20000C0F2C3
:103C3000BB00DFE812F0B900E000E7006A01F00025
:103C400047F6FF739B1A70EB010343DA82F40043DB
:103C50000B4300F0AD8082F480330B4300F0C08052
:103C600082F40022114340F0508144F20040C5F636
:103C70000200816D01F44031B1F5003F00F01A817E
:103C8000B1F5803F00F02281002940F02B810068CF
:103C9000000140F12781B1E082F480730B4335D0FD
:103CA00082F40072114340F0308144F20041C5F6C5
:103CB0000201086DC0F38212042A00F2138148F257
:103CC0000000C0F2BB00DFE812F06F0096009D001C
:103CD0002001A60082F400530B432CD082F48042D2
:103CE000114340F0128144F20040C5F60200816D9C
:103CF000C1F30271052900F2F580DFE801F003ACA1
:103D0000B3BAC86AFFF798FD04B080BD44F2004121
:103D1000C5F60201086D00F00702042A00F2E280F5
:103D200048F20000C0F2BB00DFE812F03E00650080
:103D30006C00EF00750044F20040C5F60200016D12
:103D4000C1F30241052900F2CD80DFE801F00384D0
:103D50008B92A04200F048FF04B080BD44F20041C5
:103D6000C5F60201886DC0F34252042A00F2BA80FF
:103D700048F20000C0F2BB00DFE802F0163D44C785
:103D80004D0044F20041C5F60201886DC0F30262A5
:103D9000042A00F2A78048F20000C0F2BB00DFE86E
:103DA00002F0032A31B43A00086880017CD499E01B
:103DB00044F20040C5F60200016D01F04051B1F13E
:103DC000005F00F08C80B1F1805F6AD0002940F084
:103DD0008980006847F640018003C0F27D115CE0F5
:103DE00044F20040C5F60200C16C0068C9032CD43F
:103DF000800177D558E00868000173D501A8FFF766
:103E0000C3FD05E0086880006CD501A8FFF750FEEF
:103E1000019804B080BDC86C0B6810F0405208686F
:103E200002D113F0040328D1B2F1805F02D110F463
:103E3000807060D1086810F400301CBF47F6400065
:103E4000C0F27D10B2F1005F6BE000014AD501A81D
:103E5000FFF79AFD40E00068000143D501A8FFF795
:103E600093FD24E0006880003CD501A8FFF720FE08
:103E70001DE00168490735D50068C0F3C10049F26B
:103E80000001C0F2D03121FA00F004B080BD00681A
:103E900040F60011C005C0F23D0101EAE07004B037
:103EA00080BD006880011DD501A8FFF7D9FC0298EC
:103EB00004B080BDC16C036811F04051026814D198
:103EC00013F0040311D0C2F3C100D8E700688000EA
:103ED00008D501A8FFF7ECFD039804B080BD006889
:103EE00000010ED4002004B080BDB1F1805F0ED17E
:103EF00012F480720BD040F60010C0F23D0004B006
:103F000080BD01A8FFF740FD029804B080BD0068A5
:103F100010F400301CBF47F64000C0F27D10B1F134
:103F2000005F18BF002004B080BD0000000000004A
:103F30002DE9F04381B00446C07844F22C490007D3
:103F4000C5F6020901D400252EE0A06E4FEA3050DC
:103F500003280DD80025DFE800F0020E1714D9F869
:103F60000000002540F40030C9F8000055B913E006
:103F700001253DB910E004F10800022101F0BCFF69
:103F800005464DB1A84611E004F12800022102F0D7
:103F900043F80546002DF5D1D9F82400A16E20F490
:103FA00040100843C9F824004FF000086078C007AB
:103FB00030D0A06D042807D8DFE800F00A131C03F6
:103FC0000300FDB1A84625E00125002DFAD119E036
:103FD000D9F8000040F40030C9F80000002DF1D1FC
:103FE00010E004F10800002101F086FF0546002DD5
:103FF000E8D107E004F12800002102F00DF80546A1
:10400000002DDFD1D9F82400A16D20F0070008436E
:10401000C9F824006078800732D5E06D4FEAB0100F
:10402000042807D8DFE800F00A131C030300FDB1E1
:10403000A84625E00125002DFAD119E0D9F80000A5
:1040400040F40030C9F80000002DF1D110E004F177
:104050000800002101F050FF0546002DE8D107E0DF
:1040600004F12800002101F0D7FF0546002DDFD123
:10407000D9F82400E16D20F4E0700843C9F8240069
:104080006078400734D5D4F8A8004FEA705004286F
:1040900007D8DFE800F00A131C030300FDB1A846AF
:1040A00026E00125002DFAD119E0D9F8000040F4EE
:1040B0000030C9F80000002DF1D110E004F1080033
:1040C000002101F019FF0546002DE8D107E004F1B9
:1040D0002800002101F0A0FF0546002DDFD1D9F80E
:1040E0002C00D4F8A81020F460000843C9F82C0074
:1040F0006078000734D5D4F8AC004FEA306004286B
:1041000007D8DFE800F00A131C030300FDB1A8463E
:1041100026E00125002DFAD119E0D9F8000040F47D
:104120000030C9F80000002DF1D110E004F10800C2
:10413000002101F0E1FE0546002DE8D107E004F181
:104140002800002101F068FF0546002DDFD1D9F8D5
:104150002C00D4F8AC1020F0E0600843C9F82C0023
:10416000E078800728D5E06C4FEA3010032806D8A5
:10417000DFE800F002091202B5B1A8461CE00125F3
:10418000002DFAD110E0D9F8000040F40030C9F851
:104190000000002DF1D107E004F10800022101F038
:1041A000ABFE0546002DE8D1D9F82000E16C20F0E7
:1041B00030000843C9F820006078C00632D5206E70
:1041C0004FEA3030042807D8DFE800F00A131C0358
:1041D0000300FDB1A84625E00125002DFAD119E024
:1041E000D9F8000040F40030C9F80000002DF1D1EA
:1041F00010E004F10800002101F07EFE0546002DCC
:10420000E8D107E004F12800002101F005FF054690
:10421000002DDFD1D9F82400216E20F4E0400843BE
:10422000C9F824006078800626D5606E4FEA3040D9
:10423000052807D8DFE800F0030A100303039DB147
:10424000A84619E00125002DFAD10DE004F108007F
:10425000012101F051FE04E004F12800012101F0E8
:10426000DBFE0546002DEBD1D9F82400616E20F469
:10427000E0200843C9F824006078400628D5D4F827
:10428000B0004FEA3070052807D8DFE800F0030AD5
:10429000100303039DB1A8461AE00125002DFAD1B1
:1042A0000DE004F10800012101F026FE04E004F114
:1042B0002800012101F0B0FE0546002DEBD1D9F810
:1042C0002C00D4F8B01020F0E0400843C9F82C00CE
:1042D0006078000620D5206FD8B1B0F1005F12D011
:1042E000B0F1805F25D1D9F8000040F40030C9F862
:1042F000000085B9D9F82400216F20F04050084310
:10430000C9F8240008E004F10800012101F0F4FDDF
:104310000546002DEED0A846E078C0072AD0A06C54
:1043200003280AD8DFE800F0020D1602D5B1A8462E
:1043300020E00125002DEED1DCE70125002DF6D18E
:1043400010E0D9F8000040F40030C9F80000002D5A
:10435000EDD107E004F10800022101F0CDFD054692
:10436000002DE4D1D9F82000A16C20F0030008430F
:10437000C9F82000A078400642D5D9F8D40340F40B
:104380008070C9F8D403FEF723FB0646D9F8D4039E
:10439000C00505D4FEF71CFB801B6528F6D303255A
:1043A0006DBBD9F84410D4F8B400414011F4407FFB
:1043B00011D0D9F84410D9F8442042F48032C9F819
:1043C0004420D9F8442021F4407122F48032C9F805
:1043D0004420C9F84410B0F5807F0FD1FEF7F8FAF9
:1043E000064641F2893700BFD9F84400800705D45A
:1043F000FEF7EEFA801BB842F6D3032585B1A84636
:104400002078C00742D0E06F4FEAF000052823D89B
:10441000DFE800F003262C0303037DB3A84635E054
:104420004FF6CF73D4F8B40059F81C2CC0F2FF0338
:1044300000F4407122F47C5203EA1013B1F5407F7E
:1044400008BF1A436FF31F3049F81C2CD9F84410E9
:104450000843C9F84400D3E70125002DDED10DE063
:1044600004F10800012101F047FD04E004F12800F7
:10447000012101F0D1FD0546002DCFD1D9F828004A
:10448000E16F20F038000843C9F828002078800741
:1044900024D5A06F052807D8DFE800F0030A100331
:1044A00003039DB1A84619E00125002DFAD10DE0C6
:1044B00004F10800012101F01FFD04E004F12800CF
:1044C000012101F0A9FD0546002DEBD1D9F8280006
:1044D000A16F20F007000843C9F8280020784007A2
:1044E00026D5D4F89400052807D8DFE800F0030AA1
:1044F000100303039DB1A8461AE00125002DFAD14F
:104500000DE004F10800012101F0F6FC04E004F1E3
:104510002800012101F080FD0546002DEBD1D9F8DE
:104520002C00D4F8941020F007000843C9F82C00A0
:104530002078800628D5D4F890004FEA30700528FE
:1045400007D8DFE800F0030A100303039DB1A84673
:104550001AE00125002DFAD10DE004F10800002138
:1045600001F0CAFC04E004F12800022101F054FD2E
:104570000546002DEBD1D9F82800D4F8901020F092
:10458000E0400843C9F828002078400628D5D4F830
:104590009C004FEAB020052807D8DFE800F0030AA6
:1045A000100303039DB1A8461AE00125002DFAD19E
:1045B0000DE004F10800002101F09EFC04E004F18C
:1045C0002800022101F028FD0546002DEBD1D9F885
:1045D0002C00D4F89C1020F4E0500843C9F82C00BB
:1045E0002078000628D5D4F8A0004FEA70300528BE
:1045F00007D8DFE800F0030A100303039DB1A846C3
:104600001AE00125002DFAD10DE004F10800002187
:1046100001F072FC04E004F12800022101F0FCFC2E
:104620000546002DEBD1D9F82C00D4F8A01020F4C9
:1046300060400843C9F82C002078000716D5D4F84C
:104640008400B0F5805F08D104F12800022101F058
:10465000E3FC002818BF4FF00108D9F82800D4F86F
:10466000841020F440500843C9F828002078C00680
:1046700016D5D4F89800B0F5807F08D104F1280051
:10468000022101F0C9FC002818BF4FF00108D9F839
:104690002C00D4F8981020F440700843C9F82C007E
:1046A000A078000722D5D4F8A400B0F5003F1AD0B6
:1046B000B0F5803F11D0C8BB04F10800002101F023
:1046C0001BFC05468DB9D9F82C00D4F8A41020F4B1
:1046D00040300843C9F82C0008E004F1280002210A
:1046E00001F09AFC0546002DEDD0A846A0784007C1
:1046F00029D5D4F88800B0F5401F21D0B0F5001FAF
:1047000018D0B0F5801F40F0BF80D9F8000040F409
:104710000030C9F80000ADB9D9F82800D4F88810E5
:1047200020F440100843C9F828000CE00125002DB2
:10473000DBD1C8E704F12800012101F06DFC05463A
:10474000002DE9D0A846A078C00720D0206DB0F594
:10475000803F10D0B8B9D9F8000040F40030C9F853
:1047600000009DB9D9F82000216D20F48030084365
:10477000C9F820000BE004F10800022101F0BCFBA5
:1047800005461DB9EEE70125002DEBD0A846E078DF
:10479000800608D504F12800022101F03DFC002824
:1047A00018BF4FF00108D4E900108A037BD5D4F874
:1047B00080206FF0010303EB3223022B0AD34FEA70
:1047C00032233BB1012B64D1D9F8003043F40033DC
:1047D000C9F80030002D5FD0CA0267D4CA006FD478
:1047E0008A0279D44A0000F18280B1F1FF3F40F3A0
:1047F0008F80090200F19780C00707D004F10800FC
:10480000002101F079FB002818BF054620798007B8
:1048100007D504F10800012101F06EFB002818BF44
:1048200005462079400707D504F10800022101F070
:1048300063FB002818BF05462079000707D504F15F
:104840002800002101F0E8FB002818BF0546207968
:10485000C00607D504F12800012101F0DDFB002886
:1048600018BF05462079800607D504F128000221EB
:1048700001F0D2FB002818BF0125002D18BF01252B
:10488000284601B0BDE8F0830125002D7FF45AAF22
:1048900042E70125002D9FD1D9F8283023F4407339
:1048A0001A43C9F828204546CA0297D5D9F82420CA
:1048B000636F22F000421A43C9F82420CA008FD542
:1048C00059F81C2CD4F8B83022F480421A4349F825
:1048D0001C2C8A027FF586AFD9F82420E36E22F0E3
:1048E00080721A43C9F824204A007FF57EAF59F838
:1048F0001C2C22F4004249F81C2CD4F8BC2059F896
:104900001C3C1A4349F81C2CB1F1FF3F3FF771AF33
:10491000D9F82020636D22F040521A43C9F82020B4
:1049200009027FF569AFD9F82810D4F88C2021F45A
:1049300040011143C9F82810C0077FF45FAF65E755
:104940002DE9F04381B0002800F0F48042F2000825
:104950000446C5F200288946D8F8000000F00F0090
:1049600088420ED2D8F8000020F00F0040EA09007B
:10497000C8F80000D8F8000000F00F00484540F0EB
:10498000D980206844F218474107C5F602070AD5C6
:1049900021693A6802F07002914204D93A6822F023
:1049A00070021143396001070AD561697A6802F023
:1049B0007002914204D97A6822F070021143796042
:1049C000C1060AD5A1697A6802F4E062914204D96D
:1049D0007A6822F4E0621143796081060AD5E169C0
:1049E000BA6802F07002914204D9BA6822F07002EB
:1049F0001143B96081070AD5E1683A6802F00F02F5
:104A0000914204D93A6822F00F0211433960C0077D
:104A10007ED1206881070AD5E1683A6802F00F026A
:104A2000914204D23A6822F00F0211433960D8F85B
:104A3000001001F00F0149450DD9D8F8001021F000
:104A40000F0141EA0901C8F80010D8F8001001F080
:104A50000F0149456ED141070AD521693A6802F034
:104A60007002914204D23A6822F070021143396018
:104A700001070AD561697A6802F07002914204D296
:104A80007A6822F0700211437960C1060AD5A169E3
:104A90007A6802F4E062914204D27A6822F4E06219
:104AA0001143796080060AD5E069B96801F07001A8
:104AB000884204D2B96821F070010843B86000F060
:104AC000A7F8396848F2E012C0F600023B68C1F36B
:104AD000032103F00F03515CD25C01F01F01C840B9
:104AE00002F01F0140F2240220FA01F1C2F200425A
:104AF000116040F2200140F22C12C2F20041C2F2D9
:104B0000004208601068FDF7AFFF01B0BDE8F08318
:104B1000386820F47061D4E90102012841EA0201F9
:104B200039600BD003282BD002282ED157F8181C3F
:104B3000890307D4012001B0BDE8F08357F8181CA1
:104B4000C905F7D557F8081C21F00701084347F8B5
:104B5000080CFDF73DFF064641F2883557F8080C72
:104B6000616800F03800B0EBC10F3FF452AFFDF7C1
:104B70002FFF801BA842F1D9032001B0BDE8F083CC
:104B800057F8181C8901D5D5DCE757F8181C4907D8
:104B9000D0D5D7E70000000080B500F039F844F226
:104BA000184148F2E013C5F60201C0F600030A6896
:104BB000096801F00F01C2F30322595C9A5C02F00C
:104BC0001F0220FA02F201F01F0040F2240122FA33
:104BD00000F0C2F20041086040F22001C2F2004140
:104BE0000A6080BD0000000080B5FFF7D5FF44F2E9
:104BF0001C4148F2E012C5F60201C0F60002096845
:104C0000C1F30211515C01F01F01C84080BD0000DA
:104C100044F20041C5F602010869C0F3C20003284E
:104C20000FD002282AD070BB0868800649F2000025
:104C3000C0F2D03058BF70470968C1F3C101C84005
:104C400070478A6A886AC0F3051CC86ABCF1000F05
:104C50004B6B1DD0C3F3CC0300F00100584302F0AE
:104C60000302022A00EE100AB8EE400A12D0A2B9DE
:104C70000868800614D49FED261A1EE047F640000F
:104C8000C0F27D10704740F60010C0F23D00704742
:104C9000002070479FED1D1A0FE09FED1B1A0CE0DE
:104CA000086849F20002C0F2D032C0F3C10022FA13
:104CB00000F001EE100AB8EE411A086B9FED153AAC
:104CC0006FF35F2002EE100A086BC0F34620B8EEC7
:104CD000422A013000EE032A00EE10CAB7EE003A75
:104CE000B8EE400A81EE000A32EE031A20EE010A05
:104CF00001EE100AB8EE411A80EE010ABCEEC00ABD
:104D000010EE100A704700BF0024744A20BCBE4B4E
:104D10000024744C000000392DE9F04381B0F8B153
:104D20008046007844F20049C007C5F602095AD00F
:104D3000D9F8100000F03801D9F82800102905D062
:104D400018290FD100F0030002280BD1D9F8000078
:104D5000800344D5D8F80400002840D101272FE073
:104D6000012718E3D8F804402CB1B4F5A02F0DD0DA
:104D7000B4F5803F10D0D9F8000020F48030C9F895
:104D80000000D9F8000020F4802009E0D9F80000E4
:104D900040F48020C9F80000D9F8000040F48030C9
:104DA000C9F80000FDF714FE0546A4B1D9F80000CB
:104DB000800314D4FDF70CFE401B6428F6D90327AA
:104DC0000020002800F0E7820DE000BFFDF700FEA4
:104DD000401B6428F3D8D9F800008003F6D40120E2
:104DE000002800F0D88298F80000800740F1848005
:104DF000D9F8100010F03801D9F828001CD0182973
:104E000008BF5FEA807017D0D8F80C00D9F80010FE
:104E1000002847D021F019010843C9F80000FDF728
:104E2000D7FD0546D9F8000040072AD4FDF7D0FD8C
:104E3000401B0228F6D91EE0D9F80000400704D52F
:104E4000D8F80C00002800F09681D9F80000D8F8B6
:104E50000C1020F019000843C9F80000FDF7B8FD58
:104E6000054600BFD9F8000040070AD4FDF7B0FDA1
:104E7000401B0228F6D903270024002C00F08B8267
:104E80003AE0FDF79DFD41F20301884223D8D8F8AE
:104E90001000D9F80410402821F47C3124D141F4C9
:104EA000003023E021F00100C9F80000FDF790FD7B
:104EB00005460126D9F8000010F0040086EA9004A7
:104EC00017D0FDF785FD401B0328F3D30327002CE3
:104ED00000F0618210E0D9F80400D8F8101020F03A
:104EE000FE4040EA016001E041EA0030C9F80400F8
:104EF0000124002C00F04F8298F80000C00674D501
:104F0000D9F8100000F03801D9F82800082905D098
:104F100018291CD100F00300012818D1D9F800008D
:104F2000C00503D5D8F81C00802859D1FDF748FDED
:104F300041F20301884222D8D8F82000D9F80410A1
:104F4000202821F0F84142D141F0804041E0D8F8DA
:104F50001C000028D9F8000020D040F08000C9F8DB
:104F60000000FDF735FD0546D9F80000C005DDD489
:104F7000FDF72EFD401B0228F6D9032731E0D9F8B2
:104F80000C00D8F8201020F07C50012440EA016089
:104F9000C9F80C00002C00F0FE8126E020F0800013
:104FA000C9F80000FDF714FD05460126D9F80000F8
:104FB00010F4807086EA10240ED0FDF709FD401B26
:104FC0000328F3D30327002C00F0E5810DE041EA2C
:104FD0008060C9F804000124002C00F0DC8104E0AA
:104FE00001270024002C00F0D68198F8000000076B
:104FF0001CD498F80000800631D498F800004007CF
:1050000045D4D8F82440002C00F09180D9F8100045
:1050100000F03800182840F08C80012CD9F82810B6
:10502000D9F8300040F0A9800127B4E1D8F8140085
:105030000028D9F874003ED040F00100C9F874008F
:10504000FDF7C6FC054600BFD9F874008007D0D430
:10505000FDF7BEFC401B0228F6D903279BE1D8F8D8
:1050600018000028D9F800004DD040F48050C9F84D
:105070000000FDF7ADFC0546D9F800008004BCD463
:10508000FDF7A6FC401B0228F6D9032783E1D9F8D7
:10509000000440F48070C9F80004FDF799FC05464F
:1050A000D9F80004C0051AD4FDF792FC401B64280F
:1050B000F6D903276FE120F00100C9F87400FDF76D
:1050C00087FC0546032700BFD9F8740080077FF5E9
:1050D00090AFFDF77DFC401B0228F5D95BE1D8F8C5
:1050E00008402CB1052C00F08280012C00F0858056
:1050F000D9F8700020F00100C9F87000D9F87000EC
:1051000020F004007DE020F48050C9F80000FDF795
:105110005FFC0546032700BFD9F8000080047FF537
:105120006CAFFDF755FC401B0228F5D933E1002791
:1051300031E1D9F8000020F08070C9F80000FDF7D7
:1051400047FC022C05464FF0030709D1D9F80000AF
:10515000800178D5FDF73CFC401B0228F6D91AE106
:10516000D9F80000800140F1E780FDF731FC401BD9
:105170000228F5D90FE101277EE601F00302D8F8F5
:1051800028309A4240F0DA80C1F30511D8F82C207B
:10519000914240F0D7800146D8F830206FF35F216C
:1051A000013A914240F0D080C0F34622D8F8341042
:1051B00001398A4240F0CA80C0F30642D8F838105C
:1051C00001398A4240F0C480C0F30660D8F83C1030
:1051D0000139884240F0BE80D9F83400D8F8481030
:1051E000C0F3CC00814240F0B7800027D3E0D9F86B
:1051F000700040F00400C9F87000D9F8700040F069
:105200000100C9F87000FDF7E3FB002C054641F2F0
:1052100088344FF0030711D0D9F8700080073FF5AC
:10522000F0AEFDF7D5FB401BA042F5D9B3E000BFBF
:10523000FDF7CEFB401BA04200F2AD80D9F8700014
:105240008007F5D4DDE608F12807D9F8280040F2F8
:10525000F33188438ECF0843591E40EA02104FF4C1
:105260007E426FF35F21C9F8280002EB47204FF41C
:10527000FE0280B2D8F83C300844D8F8381002EB6F
:1052800001414FF0FE4201F4FE0102EB03620844CB
:1052900002F0FE410844C9F83000D9F82C004FF65E
:1052A000F87120F00100C9F82C00D9F83400D8F8C2
:1052B0004820884340EAC200C9F83400D9F82C00DD
:1052C000D8F8401020F00C000843C9F82C00D9F899
:1052D0002C00D8F8441020F002000843C9F82C0034
:1052E000D9F82C0040F48030C9F82C00D9F82C00F3
:1052F00040F40030C9F82C00D9F82C0040F480208C
:10530000C9F82C00D9F82C0040F00100C9F82C0095
:10531000D9F8000040F08070C9F80000FDF758FB94
:1053200004460327D9F80000800109D4FDF750FB9B
:10533000001B0228F6D92EE000272CE001272AE0E6
:10534000002728E0012726E0012724E0012722E0AA
:10535000012720E001271EE0D9F82C0020F00100F1
:10536000C9F82C00FDF734FB0546FDF731FBA842D8
:10537000FBD0D9F834004FF6F871D8F848208843AC
:10538000002740EAC200C9F83400D9F82C0040F0E8
:105390000100C9F82C00F8B201B0BDE8F0830000AC
:1053A000B0B5044690F89000012801D10220B0BDAC
:1053B000012084F89000204600F006FF2168054691
:1053C00000280A6822F400320A6094F8911018BF8D
:1053D0000125122911D1D4F8800070B1FBF770FCBF
:1053E00058B1D4F88000406D802806D0D4F89400DD
:1053F000012540F08000C4F8940094F89100222820
:1054000011D1D4F8840070B1FBF75AFC58B1D4F82C
:105410008400406D802806D0D4F89400012540F027
:105420008000C4F894002068416841F008014160A0
:10543000012084F89100002084F890002846B0BD37
:10544000704700000000000090F8910070470000D5
:105450002DE9F04F81B000287ED00446FDF7B0FA68
:1054600094F83800271D012812D145F20441206824
:10547000C5F60001884205D045F60401C4F20101D9
:10548000884269D13868012866D1606C002863D1F0
:1054900046F203002168C4F2010045F6000881428B
:1054A000C4F201084FF0010012DC45F60342C4F2D9
:1054B0000102914222DC45F60402C4F2010291424B
:1054C0003DD045F62402C4F20102914237D0B6E144
:1054D00045F20342C5F6000291421FDC46F2040287
:1054E000C4F20102914206D046F22402C4F2010243
:1054F000914240F0A48108F5006820E045F604429E
:10550000C4F20102914206D045F62442C4F20102DF
:10551000914240F0948108F5806810E045F2044221
:10552000C5F60002914206D045F22442C5F60002BB
:10553000914240F0848145F20048C5F6000894F895
:10554000910028B9002084F89000204600F094F9DA
:10555000204600F039FE18B1012001B0BDE8F08FFF
:10556000022084F89100E168A268481E0229B0FA7E
:1055700080F0A2F101014FEA50104FEA001008BF7D
:105580002020042907D8DFE801F00310080B0E00E3
:105590004FF480610BE0002109E040F0010004E0DD
:1055A00040F0020001E040F003004FF40061009180
:1055B000C8F80000206A002878D0206845F6240149
:1055C00040F02000C4F20101884205D14FF4807000
:1055D0000021FEF701FB00E00020216845F624428F
:1055E00041F02001C4F20102914204D14FF4007055
:1055F0000021FEF7F1FA216846F2240241F0200171
:10560000C4F20102914204D14FF400700021FEF770
:10561000E3FA45F200452168C5F600052A1D9142CE
:1056200004D14FF480600021FEF7D6FA216805F11D
:105630002402914204D14FF400600021FEF7CCFA1D
:10564000A169B1F5002F07D1616C04290ED008299A
:105650000ED14FF480710CE0A16A0122B1F1806F8C
:10566000216A08BF02225143090204E0402100E000
:10567000616D226A514300EB80004000B0FBF1F104
:105680004CF6CD40CCF6CC40A1FB0002D00800EB9C
:105690008003A1EB430101230829616C88BF03EB60
:1056A000D2000429606201D140086062386840F08D
:1056B0000200022804D1206D013818BF012004E047
:1056C000206D0138B0FA80F040094CF21005460216
:1056D000CFF20505FDF774F92168B0F5005F0868A1
:1056E0001BD328400860009B4546D4F804801E4325
:1056F000D4E9092004F1440704F1480C04F14C0EEC
:1057000004F12C0B04F1140904F1180A120504F138
:10571000100346EA0806A84614E005F1006204F109
:10572000440C10400860606A009D04F1480E04F1CA
:105730004C0B04F12C0904F1140AA269000504F1D0
:1057400028032E433F68DCF800503743DEF8006042
:105750002F43DBF800503743D9F800602F43DAF8C5
:10576000005037431B682F434EF20F063A43104355
:105770000A681843104308602068E169D4E90C23E3
:1057800047681143B743476019434268114341607A
:1057900048F200028168CFF6F87211408160616DB5
:1057A0000139626EE36D1143226E1943A36D1143FB
:1057B0006FF0FF02876802EB0323394319438160CE
:1057C000C1684FF2200304F168071940C160CACFD5
:1057D0001943C36841EA074145F20447C5F600078B
:1057E00002EB06221943B84241EA0201C16005D02A
:1057F00045F60401C4F20101884218D1D8F84400EA
:1058000020F00100C8F8440094F8380001280ED1B7
:10581000E06B6FF00F01226C01EB00101043C8F831
:105820004400D8F8440040F00100C8F844000020CB
:10583000C4F89400012184F8911084F8900001B01C
:10584000BDE8F08F0000000010B50329044603D224
:10585000204600F0E1FC07E0C81E022803D22046E3
:1058600000F056FD00E00120002818BF10BD2046C2
:10587000FFF7EEFD10BD000070B5B6B004466846F7
:10588000C021FAF79FFD45F604012068C4F201012A
:10589000884201D036B070BD002001904FF4807175
:1058A00000910221029140F2891203922022069176
:1058B000CDE904214021CDE9071040F2EA600990CA
:1058C000012016906846FEF733FB08B1FBF7C4F9D8
:1058D00040F29010C2F20040016861B944F2F04118
:1058E000C5F602010A6842F480020A60096801F400
:1058F00080013191319901680026013101607020E9
:105900003190022032900620359041F2000031A9FA
:10591000C5F60200CDE93366FCF77AFF4BF6CC25DD
:105920001020C2F20045C4F20200286057206860CF
:105930004020C5E902064FF4806028614FF4805092
:1059400068614FF48040A8614FF480706E62C5E9D1
:1059500007062846FCF768FA08B1FBF77DF9AC6347
:10596000C4E9205536B070BD2DE9F04116460F460A
:105970000446FDF72DF805460120002F18BF002E24
:1059800001D1BDE8F08194F89100012803D194F889
:105990009000012802D10220BDE8F081012084F8A6
:1059A0009000A7674FF00008A4F87C601220A4F8CC
:1059B0007E6046F27911C4F8948046F2B91284F8F8
:1059C0009100C0F60001D4F88000C0F60002334612
:1059D000C0E90F1246F239112268C0F600011C32EC
:1059E000C0E913183946FCF7CFFC20B1012084F838
:1059F0009080BDE8F0810021204600F0E1FC2168A4
:105A00000A6910430861086840F40030086000BF6C
:105A10002068416911F4E02F11D1FCF7D9FF401B38
:105A2000B0F57A7FF4D9D4F8940040F04000C4F87F
:105A30009400002084F890000320BDE8F081016804
:105A4000C90303D4016841F480310160002084F867
:105A50009000BDE8F081000080B54CF2280100689C
:105A6000C2F200410968884218BF80BD00F0C0FD45
:105A700080BD00000000000080B54CF228010068E5
:105A8000C2F200410968884218BF80BD00F008F8E2
:105A900080BD00000000000080B500F0B1FC80BDBA
:105AA00080B54BF2F0700121C2F2004000F05CFFC3
:105AB00080BD000000000000FEE7000000000000C4
:105AC00010B5002A08BF10BD02394FF0370C4FF057
:105AD000000E00BF030FB0F1204F0CEB107438BF65
